{
  "contractName": "Ownable",
  "abi": [
    {
      "inputs": [],
      "payable": false,
      "stateMutability": "nonpayable",
      "type": "constructor"
    },
    {
      "constant": true,
      "inputs": [],
      "name": "owner",
      "outputs": [
        {
          "internalType": "address",
          "name": "",
          "type": "address"
        }
      ],
      "payable": false,
      "stateMutability": "view",
      "type": "function"
    }
  ],
  "bytecode": "0x608060405234801561001057600080fd5b50336000806101000a81548173ffffffffffffffffffffffffffffffffffffffff021916908373ffffffffffffffffffffffffffffffffffffffff16021790555060cf8061005f6000396000f3fe6080604052348015600f57600080fd5b506004361060285760003560e01c80638da5cb5b14602d575b600080fd5b60336075565b604051808273ffffffffffffffffffffffffffffffffffffffff1673ffffffffffffffffffffffffffffffffffffffff16815260200191505060405180910390f35b6000809054906101000a900473ffffffffffffffffffffffffffffffffffffffff168156fea265627a7a72315820c97c22d07a43a7432e126c41a9a161a99bb60860d7bac9aa0def10afbc06669364736f6c634300050c0032",
  "source": "pragma solidity 0.5.12;\n\ncontract Ownable {\n    \n     // variable to set the owner\n    address public owner;\n    \n    // Allows to reduce code repetition, to clarify it and simplify it.\n    modifier onlyOwner(){\n        require(msg.sender == owner);\n        _; // means continue executiion\n    }\n    \n      // constructor is the function that runs whenever the contract is created\n    constructor() public{\n    // This code will be called only when the contract is created. \n    // the msg.sender in the constructor will be the person that initiates the conctract creation and it will only runs ONCE\n        owner = msg.sender;\n    }\n    \n}",
  "sourcePath": "/Users/andi/Documents/truffle-ERC-20/contracts/Ownable.sol",
  "compiler": {
    "name": "solc",
    "version": "0.5.12+commit.7709ece9.Emscripten.clang"
  },
  "schemaVersion": "3.3.3",
  "updatedAt": "2021-01-15T18:51:01.968Z",
  "devdoc": {
    "methods": {}
  },
  "userdoc": {
    "methods": {}
  }
}